:0400000007EF00F016
:0A0008006B8253ED16F081EF19F042
:1010000000010000000A00000064000000E8030086
:101010000010270000A086010040420F0080969833
:101020000000E1F50500CA9A3B00803F0020410026
:10103000C842007A44401C4650C34724744997185C
:101040004BBCBE4C6B6E4E03155079AD60F34971CD
:1010500000803FCDCC3DD7233C12833AB7D138C670
:101060002737388635C0D633CC2B32708930E7DB52
:101070002EE53C1E42A20D48533A256420204843E9
:101080003A25342E316625250053503A25342E3129
:10109000664320202025632025630052543A2534DE
:1010A0002E316643202020482043004D443A204FF3
:1010B000464620202020202020004D443A20434F47
:1010C0004F4C202020202020004D443A204845410C
:1010D00054202020202020004D443A204155544FD8
:1010E00020434F4F4C200000840E0001966F000EED
:1010F000976F99EF0DF0250EAD19D8B40AD080C0C6
:10110000D9FF81C0DAFFADC0DFFF804B812B99EFA3
:101110000DF0000EA76F000EA66F000E9B6F000E65
:101120009A6F82C0F6FF83C0F7FF0800F55004EC09
:101130001BF0D8A034D0000E0001A76F000EA66FE0
:10114000A6C021F0A7C022F0000E246E0A0E236E66
:1011500063EC1AF021C0A6F022C0A7F0D00E000167
:101160008B6FFF0E8C6F82C0F6FF83C0F7FF080005
:10117000F5508D6F8E6B8B518D278C518E238D5139
:10118000A6278E51A723824B832B82C0F6FF83C0F4
:10119000F7FF0800F55004EC1BF0D8B0D1D782C09F
:1011A000F6FF83C0F7FF0800F5502E0AD8A430D010
:1011B00000019B8D824B832B000EAC6F000EAB6F3A
:1011C0001CD0ABC021F0ACC022F0000E246E0A0E81
:1011D000236E63EC1AF082C0F6FF83C0F7FF0800AD
:1011E000F5502126000E2222D00E21240001AB6FE3
:1011F000FF0E2220AC6F824B832B82C0F6FF83C090
:10120000F7FF0800F55004EC1BF0D8A064D0D9D744
:10121000000E0001AC6F000EAB6F9B895CD09B850C
:1012200075D0AB51AC11D8B40AD09851AB5D99517F
:10123000AC59D8B004D0ABC098F0ACC099F0A6516E
:10124000985DA7519959D8B005D09851A65F99518A
:10125000A75B0DD0000EA76F000EA66F08D080C050
:10126000D9FF81C0DAFF200EDF6E804B812BA607ED
:10127000D8A0A707A629F3E1A729D8B40FD0EFD7A4
:1012800094C0D9FF95C0DAFF80C0E1FF81C0E2FFC2
:10129000DFCFE7FF944B952B804B812B9807D8A08D
:1012A00099079829EDE19929D8B499EF0DF0E8D77D
:1012B00096C0D9FF97C0DAFFDF50AD6F020E9627B8
:1012C000000E9723AD0E946F000E956F000E996F70
:1012D000010E986FA6D782C0F6FF83C0F7FF00010A
:1012E000824B832B0800F5CFADF0AD51000AD8B486
:1012F000A6EF0DF0630AD8B4DBD7070AD8B406D03E
:10130000020AD8B48CD70F0AD8A4DCD7070E9B15D5
:10131000D8B4FED29BA904D0000EAC6F060EAB6F02
:1013200096C0D9FF97C0DAFFDECFA8F0DECFA9F0D4
:10133000DDCFAAF0030E9627000E9723AAAF11D097
:10134000A8C01FF0A9C020F0AAC021F0C0EC1AF07C
:101350001FC0A8F020C0A9F021C0AAF0030E000110
:101360009A13000EA56F000EA46FA851A911AA111F
:10137000D8B486D0820E8B6FFF0E8C6FA8C08DF014
:10138000A9C08EF0AAC08FF0ABC090F0100E05D0AF
:10139000D89090338F338E338D33E82EF9D78D511B
:1013A0008B25A46F000E8C21A56FA407D8A0A507DC
:1013B000A4C021F0A5C022F0000E246E030E236EFF
:1013C00063EC1AF021C0A4F022C0A5F0A4C019F06B
:1013D000A5C01AF0000E1C6E0A0E1B6EBAEC17F0B8
:1013E00019C0A4F01AC0A5F00001A5AF03D0A4074E
:1013F000D8A0A507A4510008ADEC0DF036C09CF0B4
:1014000037C09DF038C09EF09CC027F09DC028F0EA
:101410009EC029F0A8C02AF0A9C02BF0AAC02CF0C9
:10142000ECEC14F027C09CF028C09DF029C09EF081
:101430009CC04CF09DC04DF09EC04EF0000E4F6E13
:10144000800E506E3F0E516E72EC17F0D8B005D082
:101450000001A407D8A0A50713D09CC04CF09DC0E4
:101460004DF09EC04EF0000E4F6E200E506E410E9D
:10147000516E72EC17F0D8A003D00001A44BA52B3D
:101480000001ACBF06D0AC511BE10D0EAB5DD8B076
:1014900017D0A8C040F0A9C041F0AAC042F0AB519B
:1014A00017EC11F036C043F037C044F038C045F0B7
:1014B00040EC12F040C0A8F041C0A9F042C0AAF030
:1014C0000001A5BF06D0A55120E10A0EA45DD8B049
:1014D0001CD0A851A911AA11D8B456D0A8C03DF06B
:1014E000A9C03EF0AAC03FF066EC15F03D503E109A
:1014F0003F104010D8A448D00001A5BF45D0A55149
:1015000004E1020EA45DD8A03FD09CC04CF09DC069
:101510004DF09EC04EF0700E4F6E890E506E400E14
:10152000516E72EC17F0D8B003D00001F70E02D064
:101530000001F80EA427FF0EA523A451ADEC0DF079
:1015400036C09CF037C09DF038C09EF0A8C013F0A4
:10155000A9C014F0AAC015F09CC016F09DC017F0E9
:101560009EC018F0BFEC13F013C0A0F014C0A1F09F
:1015700015C0A2F016C0A3F0000E0001A86F000E67
:10158000A96F000EAA6F33D0A8C03DF0A9C03EF0ED
:10159000AAC03FF066EC15F03DC0A0F03EC0A1F03F
:1015A0003FC0A2F040C0A3F0A8C04CF0A9C04DF0CD
:1015B000AAC04EF0A0C01BF0A1C01CF0A2C01DF03C
:1015C000A3C01EF0D9EC18F01BC04FF01CC050F0A7
:1015D0001DC051F0C5EC19F04CC0A8F04DC0A9F0E9
:1015E0004EC0AAF0000E0001A56F000EA46F010E00
:1015F000AD6F0A0EAD19D8B418D0AD51040D010E5F
:10160000F324F66E100EF420F76E0900F550A05D7D
:101610000900F550A1590900F550A2590900F550EB
:10162000A359D8A002D0AD2BE4D7ADC08BF08C6B02
:101630008BBF8C07AB518B27AC518C23A4518B27CC
:10164000A5518C238B51A65F8C51A75BAB51AC117C
:10165000D8B403D0A607D8A0A707030E9A158B6F9E
:10166000000E9B158C6F8B518C11D8B40CD008D008
:1016700080C0D9FF81C0DAFF200EDF6E804B812B46
:10168000A607D8A0A707A7BF05D0A751F1E1A605D7
:10169000D8B0EED7030E9A158B6F000E9B158C6F8A
:1016A0008B518C11D8B450D080C0D9FF81C0DAFFE3
:1016B0002D0E47D0A0C013F0A1C014F0A2C015F0A9
:1016C000A3C016F0AD51040D010EF324F66E100EFA
:1016D000F420F76E0900F5CF17F00900F5CF18F0E8
:1016E0000900F5CF19F00A00F5CF1AF0FCEC17F05D
:1016F00013C09CF014C09DF015C09EF016C09FF062
:101700009CC020F09DC021F09EC022F09FC023F01D
:101710000A0E246E000E256E000E266E000E276E39
:1017200075EC18F020C09CF021C09DF022C09EF006
:1017300023C09FF000019C51300F80C0D9FF81C0B1
:10174000DAFFDF6E804B812BAD07AD29D8B40CD00A
:10175000B1D780C0D9FF81C0DAFF300EDF6E804B79
:10176000812BA407D8A0A507A5BF05D0A551F1E1FD
:10177000A405D8B0EED7ACBF09D0AC5104E1090E36
:10178000AB5DD8A003D0080EAD6F02D0ABC0ADF0FA
:10179000AD51AB5F000EADBFFF0EAC5BAD51D8B429
:1017A00008D080C0D9FF81C0DAFF2E0EDF6E804BDB
:1017B000812BAD51ADEC0DF036C091F037C092F0F9
:1017C00038C093F0A8C02AF0A9C02BF0AAC02CF012
:1017D00091C027F092C028F093C029F0ECEC14F0EF
:1017E00027C03DF028C03EF029C03FF066EC15F060
:1017F0003DC0A0F03EC0A1F03FC0A2F040C0A3F0A9
:1018000071D0A0C013F0A1C014F0A2C015F0A3C005
:1018100016F00001AD51040D010EF324F66E100E0A
:10182000F420F76E0900F5CF17F00900F5CF18F096
:101830000900F5CF19F00A00F5CF1AF0FCEC17F00B
:1018400013C09CF014C09DF015C09EF016C09FF010
:101850009CC020F09DC021F09EC022F09FC023F0CC
:101860000A0E246E000E256E000E266E000E276EE8
:1018700075EC18F020C09CF021C09DF022C09EF0B5
:1018800023C09FF000019C51300F80C0D9FF81C060
:10189000DAFFDF6E804B812BA0C020F0A1C021F0C9
:1018A000A2C022F0A3C023F0AD51040D010EF32419
:1018B000F66E100EF420F76E0900F5CF24F0090043
:1018C000F5CF25F00900F5CF26F00A00F5CF27F077
:1018D00075EC18F020C0A0F021C0A1F022C0A2F049
:1018E00023C0A3F00001AD07AD29D8B40CD089D72F
:1018F00080C0D9FF81C0DAFF300EDF6E804B812BB4
:10190000AB07D8A0AC07AB51AC11D8B412D1F0D70B
:1019100096C0D9FF97C0DAFFDECFA0F0DDCFA1F0EF
:10192000000EA1BFFF0EA26FA36F020E9627000E3E
:101930009723A3AF0AD0030E9A13A31FA21FA11FC0
:10194000A06D000EA123A223A323AB51AC11D8A4F8
:1019500008D0A051A111A211A311D8A402D0AB4B61
:10196000AC2B010EAD6F0A0EAD19D8B418D0AD5125
:10197000040D010EF324F66E100EF420F76E09002C
:10198000F550A05D0900F550A1590900F550A25984
:101990000900F550A359D8A002D0AD2BE4D7800E92
:1019A000ADBF7F0E8B6FAB51AD5DAC51800A8B59D3
:1019B000D8B003D0ABC0ADF010D0AC51800A8B6F63
:1019C000AD51AB5D800EADBF7F0E8B59D8B005D049
:1019D000AD51AB6FAC6BABBFAC07A651A711D8B480
:1019E0000DD0030E9A158B6F000E9B158C6F8B51CB
:1019F0008C11D8B403D0A607D8A0A7079BAD13D0ED
:101A0000A651AB5DAC51800A8B6FA751800A8B59F0
:101A1000D8B005D0AB51A65FAC51A75B04D0000E87
:101A2000A76F000EA66F800EADBF7F0E8B6FA65105
:101A3000AD5DA751800A8B59D8B007D0AD51A65FD4
:101A4000000EADBFFF0EA75B04D0000EA76F000E07
:101A5000A66FA651A711D8B40FD080C0D9FF81C0FE
:101A6000DAFF200EDF6E804B812BA607D8A0A707D8
:101A7000A651A711D8A4F1D7030E9A158B6F000EAB
:101A80009B158C6F8B518C11D8B44BD080C0D9FF73
:101A900081C0DAFF2D0EDF6E42D0ABC08BF0ACC040
:101AA0008CF0D8908B378C37D8908B378C37010ED1
:101AB0008B25F66E100E8C21F76E0900F5CF17F00E
:101AC0000900F5CF18F00900F5CF19F00A00F5CF9D
:101AD0001AF0A0C013F0A1C014F0A2C015F0A3C06A
:101AE00016F0FCEC17F013C020F014C021F015C064
:101AF00022F016C023F00A0E246E000E256E000E92
:101B0000266E000E276E75EC18F02050300F000185
:101B1000AD6F80C0D9FF81C0DAFFADC0DFFF804B61
:101B2000812BAB07D8A0AC07AB29B7E1AC29D8A46F
:101B3000B4D782C0F6FF83C0F7FF824B832B080027
:101B4000F5CFADF0AD51D8A47BEF08F080C0D9FF40
:101B500081C0DAFF000EDF6E12003C6E3CAE01D198
:101B60003C6C3C50800A120FD8A091D0000E246E1D
:101B7000030E236E000E1C6E0A0E1B6E000E166EF8
:101B8000640E156E3C50136E146A13BE14063DECC1
:101B900018F013C019F014C01AF0BAEC17F0090EBF
:101BA0001924216E000E1A20226E63EC1AF0500EDA
:101BB0002124F66E100E2220F76E0900F5CF2AF0D0
:101BC0000900F5CF2BF00A00F5CF2CF0000E1C6EAB
:101BD000640E1B6E3C50196E1A6A19BE1A06BAECD6
:101BE00017F0120E1924216E000E1A20226E000E1C
:101BF000246E030E236E63EC1AF0500E2124F66E51
:101C0000100E2220F76E0900F5CF27F00900F5CF5E
:101C100028F00A00F5CF29F0ECEC14F027C039F0D9
:101C200028C03AF029C03BF039C027F03AC028F06C
:101C30003BC029F0000E246E030E236E000E166EBC
:101C40000A0E156E3C50136E146A13BE14063DEC5A
:101C500018F013C021F014C022F063EC1AF0500EFB
:101C60002124F66E100E2220F76E0900F5CF2AF01F
:101C70000900F5CF2BF00A00F5CF2CF0ECEC14F0B6
:101C800027C036F028C037F029C038F012003C5089
:101C9000800A750FD8A053D0000E1C6E0A0E1B6E62
:101CA0003C50196E1A6A19BE1A06BAEC17F0090EE2
:101CB0001924216E000E1A20226E000E246E030ECF
:101CC000236E63EC1AF0500E2124F66E100E2220C3
:101CD000F76E0900F5CF27F00900F5CF28F00A00CC
:101CE000F5CF29F0000E246E030E236E000E166E43
:101CF0000A0E156E3C50136E146A13BE14063DECAA
:101D000018F013C021F014C022F063EC1AF0500E4A
:101D10002124F66E100E2220F76E0900F5CF2AF06E
:101D20000900F5CF2BF00A00F5CF2CF0ECEC14F005
:101D300027C036F028C037F029C038F012003C50D8
:101D4000030D500EF324F66E100EF420F76E09000A
:101D5000F5CF36F00900F5CF37F00A00F5CF38F0AF
:101D600012003C50800A120FD8A091D0000E246EB1
:101D7000030E236E000E1C6E0A0E1B6E000E166EF6
:101D8000640E156E3C50136E146A13BE14063DECBF
:101D900018F013C019F014C01AF0BAEC17F0090EBD
:101DA0001924216E000E1A20226E63EC1AF0290EFF
:101DB0002124F66E100E2220F76E0900F5CF2AF0CE
:101DC0000900F5CF2BF00A00F5CF2CF0000E1C6EA9
:101DD000640E1B6E3C50196E1A6A19BE1A06BAECD4
:101DE00017F0120E1924216E000E1A20226E000E1A
:101DF000246E030E236E63EC1AF0290E2124F66E76
:101E0000100E2220F76E0900F5CF27F00900F5CF5C
:101E100028F00A00F5CF29F0ECEC14F027C039F0D7
:101E200028C03AF029C03BF039C027F03AC028F06A
:101E30003BC029F0000E246E030E236E000E166EBA
:101E40000A0E156E3C50136E146A13BE14063DEC58
:101E500018F013C021F014C022F063EC1AF0290E20
:101E60002124F66E100E2220F76E0900F5CF2AF01D
:101E70000900F5CF2BF00A00F5CF2CF0ECEC14F0B4
:101E800027C036F028C037F029C038F012003C5087
:101E9000800A750FD8A053D0000E1C6E0A0E1B6E60
:101EA0003C50196E1A6A19BE1A06BAEC17F0090EE0
:101EB0001924216E000E1A20226E000E246E030ECD
:101EC000236E63EC1AF0290E2124F66E100E2220E8
:101ED000F76E0900F5CF27F00900F5CF28F00A00CA
:101EE000F5CF29F0000E246E030E236E000E166E41
:101EF0000A0E156E3C50136E146A13BE14063DECA8
:101F000018F013C021F014C022F063EC1AF0290E6F
:101F10002124F66E100E2220F76E0900F5CF2AF06C
:101F20000900F5CF2BF00A00F5CF2CF0ECEC14F003
:101F300027C036F028C037F029C038F012003C50D6
:101F4000030D290EF324F66E100EF420F76E09002F
:101F5000F5CF36F00900F5CF37F00A00F5CF38F0AD
:101F6000120035EC1AF0D2EC1AF0A8EC18F026ECBE
:101F70001BF0F4EC1AF01EEC1BF00400000EE5EC74
:101F800019F013C062F014C063F0010EE5EC19F013
:101F900013C060F014C061F0020EE5EC19F013C03C
:101FA0005EF014C05FF0000E2A6EA00E2B6E400E85
:101FB0002C6E62C01BF063C01CF09CEC1AF01BC0BE
:101FC00027F01CC028F01DC029F0ECEC14F027C04D
:101FD00036F028C037F029C038F0C00E396E7F0EB9
:101FE0003A6E440E3B6EE0EC15F036C0BAF037C0E6
:101FF000BBF038C0BCF0000E2A6EA00E2B6E400E57
:102000002C6E60C01BF061C01CF09CEC1AF01BC071
:1020100027F01CC028F01DC029F0ECEC14F027C0FC
:1020200036F028C037F029C038F0C00E396E7F0E68
:102030003A6E440E3B6EE0EC15F036C0B7F037C098
:10204000B8F038C0B9F0000E2A6EA00E2B6E400E0C
:102050002C6E5EC01BF05FC01CF09CEC1AF01BC025
:1020600027F01CC028F01DC029F0ECEC14F027C0AC
:1020700036F028C037F029C038F0C00E396E7F0E18
:102080003A6E440E3B6EE0EC15F036C0B4F037C04B
:10209000B5F038C0B6F0000E396EA00E3A6E400EA4
:1020A0003B6EBAC036F0BBC037F0BCC038F0E0ECD5
:1020B00015F036C027F037C028F038C029F0000EE0
:1020C0002A6EC80E2B6E420E2C6EECEC14F027C05C
:1020D0005BF028C05CF029C05DF0B4C027F0B5C04B
:1020E00028F0B6C029F0000E2A6EC80E2B6E420EE4
:1020F0002C6EECEC14F027C058F028C059F029C021
:102100005AF0000E396EA00E3A6E400E3B6EB7C00C
:1021100036F0B8C037F0B9C038F0E0EC15F036C092
:1021200027F037C028F038C029F0000E2A6EC80EFC
:102130002B6E420E2C6EECEC14F027C0BDF028C0C4
:10214000BEF029C0BFF06850D8B417D0000E686E3A
:10215000000E146E1E0E136E76EC1AF081B00DD0C8
:102160006A28030B6A6E01D0040081A0FDD7000E1F
:10217000146E320E136E76EC1AF06750D8B417D086
:10218000000E676E000E146E1E0E136E76EC1AF0C3
:1021900081B20DD06928030B696E01D0040081A2C1
:1021A000FDD7000E146E320E136E76EC1AF06650E8
:1021B000D8B416D0000E666E000E146E1E0E136E8E
:1021C00076EC1AF081B40CD0000E6A6E01D00400D7
:1021D00081A4FDD7000E146E320E136E76EC1AF049
:1021E00016EC13F00FD013EC1BF01AD002EC1AF01F
:1021F00017D089EC1AF014D0B9EC16F011D013EC0A
:102200001BF00ED06A50000AD8B4EDD7010AD8B43A
:10221000EDD7030AD8B4EDD7010AD8B4EDD7EFD77C
:10222000000E146E320E136E76EC1AF0A6D63F6EC8
:102230006D0E3F649FD0000E246E030E236E000EC1
:102240001C6E0A0E1B6E000E166E640E156E3FC0DD
:1022500013F0146A3DEC18F013C019F014C01AF012
:10226000BAEC17F0090E1924216E000E1A20226E06
:1022700063EC1AF0500E2124F66E100E2220F76E39
:102280000900F5CF2AF00900F5CF2BF00A00F5CFB1
:102290002CF0000E1C6E640E1B6E3FC019F01A6A03
:1022A000BAEC17F0120E1924216E000E1A20226EBD
:1022B000000E246E030E236E63EC1AF0500E2124E0
:1022C000F66E100E2220F76E0900F5CF27F00900F8
:1022D000F5CF28F00A00F5CF29F0ECEC14F027C078
:1022E0003CF028C03DF029C03EF0000E246E030EE5
:1022F000236E000E166E0A0E156E3FC013F0146AA0
:102300003DEC18F013C021F014C022F063EC1AF079
:10231000500E2124F66E100E2220F76E0900F5CF24
:102320002AF00900F5CF2BF00A00F5CF2CF03CC0C5
:1023300027F03DC028F03EC029F0ECEC14F027C097
:1023400039F028C03AF029C03BF039C027F03AC034
:1023500028F03BC029F0000E2A6E000E2B6E3F0EB7
:102360002C6EECEC14F027C036F028C037F029C0F2
:1023700038F012000A0E3F6463D0000E246E030E84
:10238000236E000E166E0A0E156E3FC013F0146A0F
:102390003DEC18F013C021F014C022F063EC1AF0E9
:1023A000500E2124F66E100E2220F76E0900F5CF94
:1023B0002AF00900F5CF2BF00A00F5CF2CF0000E23
:1023C0001C6E0A0E1B6E3FC019F01A6ABAEC17F0A9
:1023D000090E1924216E000E1A20226E000E246EA2
:1023E000030E236E63EC1AF0500E2124F66E100ECD
:1023F0002220F76E0900F5CF27F00900F5CF28F06D
:102400000A00F5CF29F0ECEC14F027C03CF028C00E
:102410003DF029C03EF03CC027F03DC028F03EC052
:1024200029F0000E2A6E000E2B6E3F0E2C6EECEC87
:1024300014F027C036F028C037F029C038F0120059
:102440003F50030D500EF324F66E100EF420F76E7D
:102450000900F5CF27F00900F5CF28F00A00F5CFE5
:1024600029F0000E2A6E000E2B6E3F0E2C6EECEC47
:1024700014F027C036F028C037F029C038F0120019
:1024800042C046F0476A486A4134463601E3478015
:1024900046504B6E45C046F0476A486A443446365B
:1024A00001E3478046504A6E4B50D8B40BD04A5097
:1024B0004B5CD8B00ED04B5000084A24466E180E24
:1024C000466407D043C040F044C041F045C042F0EC
:1024D00012004A50D8B40BD04B504A5CD8B00ED042
:1024E0004A5000084B24466E180E466407D040C080
:1024F00040F041C041F042C042F01200060E496E69
:1025000042BE498E45BE498C418EFF0E4016FF0EDD
:102510004116000E4216448EFF0E4316FF0E44165F
:10252000000E45164A504B5CD8B01BD0D8904336AD
:10253000443645364A064B504A18D8B40DD04906A1
:1025400049C046F0070E4616D8B406D0EFD7D8904B
:102550004232413240324B2A4A504B18D8B41FD035
:10256000F6D74B504A5CD8B01AD0D8904036413696
:1025700042364B064B504A18D8B40DD0490649C0D4
:1025800046F0070E4616D8B406D0EFD7D89045329D
:10259000443243324A2A4A504B18D8A4F7D749AE9E
:1025A0000CD0FF0E401AFF0E411AFF0E421A010E08
:1025B0004026000E4122000E422249AC0CD0FF0EF4
:1025C000431AFF0E441AFF0E451A010E4326000E51
:1025D0004422000E4522000E496E405043264150D1
:1025E00044224250452245AE0ED0FF0E431AFF0E44
:1025F000441AFF0E451A010E4326000E4422000E17
:102600004522010E496E43C013F044C014F045C08A
:1026100015F04BC016F049C017F01BEC17F013C0B3
:1026200040F014C041F015C042F012006550D8A42B
:1026300005D0000E0001B16F4E0E04D0000E000157
:10264000B16F590EB06FB0C0AEF06450D8A404D0D2
:10265000000EB36F4E0E03D0000EB36F590EB26F63
:10266000B2C0AFF0010E1D6E010EA4EC19F0C00E49
:102670000001806F000E816F9B0E826F100E836FC2
:1026800058C084F059C085F05AC086F074EC08F048
:10269000C00E216E000E226E07EC19F0020E1D6EA8
:1026A000010EA4EC19F0C00E0001806F000E816FC6
:1026B000890E826F100E836F5BC084F05CC085F062
:1026C0005DC086F0AEC087F0886BAFC089F08A6BC2
:1026D00074EC08F0C00E216E000E226E07EC19F0AB
:1026E000030E1D6E010EA4EC19F0C00E0001806FE8
:1026F000000E816F770E826F100E836F69C084F0B9
:10270000856BBDC086F0BEC087F0BFC088F074EC9A
:1027100008F0C00E216E000E226E07EC19F0040EB8
:102720001D6E010EA4EC19F01CD0AB0E216E100E24
:10273000226E07EC19F01200C90E216E100E226EE7
:1027400007EC19F01200BA0E216E100E226E07EC83
:1027500019F01200D80E216E100E226E07EC19F03F
:1027600012006A50000AD8B4E0D7010AD8B4E4D7FE
:10277000030AD8B4E8D7010AD8A41200EBD715C0D1
:1027800019F01A6A1B6A1434193601E31A801950B9
:10279000216E2150D8A409D0000E136E000E146EC5
:1027A000000E156E000E166E120018C019F01A6A8F
:1027B0001B6A1734193601E31A801950206E205015
:1027C000D8A409D0000E136E000E146E000E156E04
:1027D000000E166E1200148EFF0E1316FF0E141646
:1027E000000E1516178EFF0E1616FF0E1716000E8A
:1027F0001816000E1C6E000E1D6E000E1E6E000ED2
:102800001F6E7F0E215E2050980F215E180E206EE5
:10281000D8901C361D361E361F361650135C1750C6
:10282000145818501558D8A007D01650135E1750DA
:10283000145A1850155A1C80D89013361436153671
:10284000202EE6D721AE16D02150800A970FD8B09F
:1028500009D0000E136E000E146E000E156E000EE1
:10286000166E1200D8901F321E321D321C32213ECD
:10287000F9D715D0170E21640FD0000E136E000E7D
:10288000146E000E156E000E166E1200D8901C36D7
:102890001D361E361F3621062150D8A4F7D71CC07E
:1028A00013F01DC014F01EC015F01FC016F012006A
:1028B000153416341E6E1E50D8A409D0000E136EA7
:1028C000000E146E000E156E000E166E12001834F7
:1028D00019341D6E1D50D8A409D0000E136E000EC1
:1028E000146E000E156E000E166E1200158EFF0E81
:1028F0001316FF0E1416FF0E1516000E1616188E60
:10290000FF0E1616FF0E1716FF0E1816000E1916DC
:10291000000E196E000E1A6E000E1B6E000E1C6E5D
:102920007F0E1E5E1D50A00F1E5E200E1D6ED890E5
:1029300019361A361B361C361650135C17501458AD
:102940001850155819501658D8A009D01650135EB3
:102950001750145A1850155A1950165A1980D890F1
:1029600013361436153616361D2EE1D71EAE16D088
:102970001E50800A9F0FD8B009D0000E136E000EB3
:10298000146E000E156E000E166E1200D8901C32DA
:102990001B321A3219321E3EF9D715D01F0E1E6493
:1029A0000FD0000E136E000E146E000E156E000E8A
:1029B000166E1200D89019361A361B361C361E06B3
:1029C0001E50D8A4F7D719C013F01AC014F01BC0BA
:1029D00015F01CC016F0120029C02DF02E6A2F6AC7
:1029E00028342D3601E32E802D50306E3050D8A47F
:1029F00007D0000E276E000E286E000E296E120002
:102A00002CC02DF02E6A2F6A2B342D3601E32E8038
:102A10002D50356E3550D8A407D0000E276E000E0D
:102A2000286E000E296E120035507B0F302629C00B
:102A300035F02C50351A800E3516288E2B8EFF0E51
:102A40002A16FF0E2B16000E2C16000E316E000EED
:102A5000326E000E336E070E346E27A006D02A5059
:102A600031262B5032222C503322D8902932283252
:102A70002732D8902A362B362C36342EEED7090E34
:102A8000346E27A006D02A5031262B5032222C50EB
:102A90003322D890293228322732D890333232323A
:102AA0003132342EEED731C013F032C014F033C0BF
:102AB00015F030C016F035C017F01BEC17F013C03E
:102AC00027F014C028F015C029F012003FC041F0D3
:102AD000426A436A3E34413601E3428041504B6EC4
:102AE0004B50D8A409D0000E3D6E000E3E6E000E75
:102AF0003F6E000E406E1200170E416E3DC042F058
:102B00003EC043F03FC044F04128456E04D0D89009
:102B1000443243324232452EFAD74250466E3E8E00
:102B2000FF0E3D16FF0E3E16000E3F163D50476E3F
:102B30003E50486E3F50496E4A6A8E0E4B5E4BAE19
:102B400016D04B50800A8F0FD8B009D0000E3D6EC2
:102B5000000E3E6E000E3F6E000E406E1200D890CA
:102B60004A324932483247324B3EF9D715D0170E18
:102B70004B640FD0000E3D6E000E3E6E000E3F6E99
:102B8000000E406E1200D8904736483649364A3615
:102B90004B064B50D8A4F7D74650D8B408D04A1E9D
:102BA000491E481E476C000E482249224A2247C04F
:102BB0003DF048C03EF049C03FF04AC040F012002E
:102BC00038C03CF03D6A3E6A37343C3601E33D8014
:102BD0003C50436E4350D8A407D0000E366E000E12
:102BE000376E000E386E12003BC03CF03D6A3E6A04
:102BF0003A343C3601E33D803C50446E4450D8A406
:102C000007D0000E366E000E376E000E386E1200C2
:102C1000000E406E000E416E000E426E4450890F51
:102C2000435E38C044F03B50441A800E4416378E41
:102C3000FF0E3616FF0E3716000E38163A8EFF0EB0
:102C40003916FF0E3A16000E3B16180E3F6ED8903E
:102C50004036413642363950365C3A5037583B5050
:102C60003858D8A007D03950365E3A50375A3B50C2
:102C7000385A4080D8903636373638363F2EE7D728
:102C800040C013F041C014F042C015F043C016F02C
:102C900044C017F01BEC17F013C036F014C037F027
:102CA00015C038F012000600FACF01F0FBCF02F099
:102CB000E9CF03F0EACF04F0E1CF05F0E2CF06F070
:102CC000D9CF07F0DACF08F0F3CF09F0F4CF0AF04C
:102CD000F6CF0BF0F7CF0CF0F8CF0DF0F5CF0EF0EC
:102CE0006BC00FF06CC010F06DC011F06EC012F030
:102CF000F2A203D0F292010E686EF0A003D0F09021
:102D0000010E676EF0A203D0F092010E666EA1A0D4
:102D100002D0A190829A9EA006D09E90828A000E38
:102D2000CF6E000ECE6E12C06EF011C06DF010C0EE
:102D30006CF00FC06BF00EC0F5FF0DC0F8FF0CC0BB
:102D4000F7FF0BC0F6FF0AC0F4FF09C0F3FF08C08D
:102D5000DAFF07C0D9FF06C0E2FF05C0E1FF04C0EB
:102D6000EAFF03C0E9FF02C0FBFF01C0FAFF6B925C
:102D700011005BC01FF05CC020F05DC021F0C0EC12
:102D80001AF01FC040F020C041F021C042F058C0EE
:102D900043F059C044F05AC045F040EC12F040C036
:102DA00055F041C056F042C057F0000E4C6E000E78
:102DB0004D6E000E4E6E55C04FF056C050F057C0CD
:102DC00051F072EC17F0D8B003D089EC1AF0120071
:102DD00058C04CF059C04DF05AC04EF05BC043F0A3
:102DE0005CC044F05DC045F06950AEEC1AF01BC009
:102DF0001FF01CC020F01DC021F0C0EC1AF01FC055
:102E000040F020C041F021C042F040EC12F040C040
:102E10004FF041C050F042C051F072EC17F0D8B002
:102E200003D002EC1AF01200829A8294000EBD6E5A
:102E30009D90A09012001650D8B405D013501410D5
:102E40001510D8A40CD0000E136E000E146E000ED8
:102E5000156E1200162AD890153214321332000E55
:102E60001314186E000E1414196EFE0E15141A6E3B
:102E7000185019101A10D8B40CD0ECD7162A010E1D
:102E80001326000E1422000E1522D890153214328B
:102E90001332000E1314186E000E1414196EFF0E68
:102EA00015141A6E185019101A10D8B406D0E6D797
:102EB0001606D89013361436153614BE03D0020EFB
:102EC0001660F6D716A0149ED8901632165015121A
:102ED0001750D8A4158E13C013F014C014F015C0E9
:102EE00015F012004EAE16D04CC052F04DC053F04B
:102EF0004EC054F0521E531E541E522A000E53222E
:102F00005422000E52244C6E000E53204D6E800E43
:102F100054204E6E51AE16D04FC052F050C053F0F8
:102F200051C054F0521E531E541E522A000E5322FA
:102F30005422000E52244F6E000E5320506E800E0D
:102F40005420516E000E4C1A000E4D1A800E4E1A6F
:102F5000000E4F1A000E501A800E511A4F504C5C42
:102F600050504D5851504E58D8B002D0D890120001
:102F7000D8801200000E1E6E1CAE06D01B6C1C1EEC
:102F8000D8B01C2A010E1E6E1AAE06D0196C1A1E7D
:102F9000D8B01A2A010E1E1A000E206E000E1F6EE7
:102FA0001B501C10D8B41CD0010E1D6E04D0D8903C
:102FB0001B361C361D2A1CAEFAD7D8901F36203679
:102FC0001B50195C1C501A58D8A005D01B50195E14
:102FD0001C501A5A1F80D8901C321B321D2EEDD760
:102FE0001E50D8B404D01F6C201ED8B0202A1FC099
:102FF00019F020C01AF01200000E1B6E000E1C6E9D
:10300000000E1D6E000E1E6E1750181019101A10AB
:10301000D8B42AD0010E1F6E06D0D89017361836B5
:1030200019361A361F2A1AAEF8D7D8901B361C3616
:103030001D361E361750135C185014581950155869
:103040001A501658D8A009D01750135E1850145AA9
:103050001950155A1A50165A1B80D8901A32193224
:10306000183217321F2EE1D71BC013F01CC014F00A
:103070001DC015F01EC016F01200000E186E14AE22
:1030800006D0136C141ED8B0142A010E186E16AE9A
:1030900004D0156C161ED8B0162A15501610D8B4C8
:1030A00018D0010E176E04D0D89015361636172A90
:1030B00016AEFAD71550135C16501458D8A004D089
:1030C0001550135E1650145AD89016321532172E1A
:1030D000F1D71850D8B404D0136C141ED8B0142AE9
:1030E00013C013F014C014F0120024502510261041
:1030F0002710D8B424D0010E286E06D0D8902436DC
:10310000253626362736282A27AEF8D72450205CC5
:10311000255021582650225827502358D8A008D08F
:103120002450205E2550215A2650225A2750235AD7
:10313000D8902732263225322432282EE7D720C0D5
:1031400020F021C021F022C022F023C023F0120081
:1031500084948492000E146E190E136E76EC1AF09D
:10316000010E1D6E030E1D6401D00BD0030EE3ECA7
:103170001AF0000E146E060E136E76EC1AF01D2A6D
:10318000F1D7020EE3EC1AF0000E1D6E030E1D6463
:1031900001D012001D50010DE00EF324D96E000E77
:1031A000F420DA6EDF501B6E000E5DEC19F01D2A64
:1031B000EDD78E0E236E06D0D8901E321D321C32F3
:1031C0001B32232A000E1B141F6E000E1C14206ECF
:1031D000000E1D14216EFF0E1E14226E1F502010B3
:1031E00021102210D8A4E8D71BC013F01CC014F083
:1031F0001DC015F023C016F0000E176E1BEC17F063
:1032000013C01BF014C01CF015C01DF0120015D027
:1032100021C0F6FF22C0F7FF000EF86E0F0EF76414
:1032200003D00800F55005D0F6CFE9FFF7CFEAFF4D
:10323000EF5032EC19F0214A222A21C0F6FF22C0B9
:10324000F7FF000EF86E0F0EF76403D00800F5507C
:1032500005D0F6CFE9FFF7CFEAFFEF500009D8B469
:103260001200D6D7206E1ED0010E1B6E000E5DEC34
:1032700019F0000E146E020E136E76EC1AF01200A6
:10328000020E1D6E010EA4EC19F01200100E1B6E42
:10329000000E5DEC19F0120020C01BF0010E5DEC79
:1032A00019F012002050080AD8B4F0D7020AD8B496
:1032B000E7D7060AD8B4D8D7EFD71C6E1CB002D017
:1032C000849401D08484010E1EEC1AF0010E1EECD1
:1032D0001AF084921B380F0BE3EC1AF01B500F0B03
:1032E000E3EC1AF01C50D8B405D0320E0400E82EDE
:1032F000FDD71200000E146E020E136E76EC1AF05B
:103300001200580EF66E360EF76E000EF86E00EED6
:10331000E0F010EE04F00900F5CFEEFFE550E150CB
:10332000FAE100EEB4F02C0EEE6AE806FDE100EEE4
:1033300058F0130EEE6AE806FDE16B906B92000EFA
:10334000F86E0001B1EF0FF01E6E09D0800E05D0AF
:10335000C00E03D0900E01D0D00E1F6E0DD01D50A8
:10336000010AD8B4F3D7030AD8B4F2D7010AD8B403
:10337000F1D7070AD8B4F0D71E041F261F508009C2
:103380001B6E000E5DEC19F012004F5050105110E2
:10339000D8B406D0000E4F1A000E501A800E511AE3
:1033A0004CC040F04DC041F04EC042F04FC043F021
:1033B00050C044F051C045F040EC12F040C04CF019
:1033C00041C04DF042C04EF01200196E19C015F008
:1033D00015461546C2501518C30B1518C26EC28289
:1033E000C2B2FED7C350C4CF15F0166A15C016F08E
:1033F000156A1510176E1650186E17C013F018C006
:1034000014F01200010E656E000E646E000EBD6EAB
:1034100082949D80A08060C013F061C014F0060EFD
:10342000D89013361436E82EFBD713C015F014C00D
:1034300016F01650BC6E15C0BBFF1200166E000EC3
:10344000186E000E176E03D00400174A182A165083
:10345000136E146A1750135C1450800A156E1850BE
:10346000800A1558D8A01200EFD70C0EC16E000EBE
:103470008D6E8DCF8CFF8CCF8BFF8BCF8AFF8ACF49
:1034800089FF92689368000E946E000E956E000E90
:10349000966E829A8294120013C015F014C016F032
:1034A000D89016321532D890163215321550BE6E9D
:1034B00013C015F0030E1516153ABD501518CF0B95
:1034C0001518BD6E120021502302F3CF25F0F4CF62
:1034D00026F021502402F350262622502302F350D6
:1034E000262625C021F026C022F01200000E166EFE
:1034F000000E156E07D0C80E04000400E82EFCD79D
:10350000154A162A1550135C16501458D8A01200EC
:10351000F2D7000E656E010E646E829A9D90A090A7
:10352000030ECA12CA841EEC1BF060C013F061C007
:1035300014F04CEC1AF012001BC013F01CC014F075
:10354000156A8E0E166E000E176E1BEC17F013C068
:103550001BF014C01CF015C01DF012001E6E1E5092
:10356000136E146A156A8E0E166E000E176E1BEC23
:1035700017F013C01BF014C01CF015C01DF0120092
:103580001F5020102110D8B406D0000E1F1A000EB4
:10359000201A800E211A1FC01FF020C020F021C069
:1035A00021F01200D09EF19CF292F288F19AF090F4
:1035B000F086F198F092F0889D909E90A090A19056
:1035C000F28CF28E12001A6E1AC019F0193A83505A
:1035D00019180F0B1918836E010E1EEC1AF0848255
:1035E000040000F084921200090EBA6E000ECD6E37
:1035F000CD92CD50CF0B2009CD6ECD8E000ECF6E6B
:10360000000ECE6ECD801200156E000E146E3A0EB6
:10361000156005D02F0E156402D0010E146E14C073
:1036200013F013301200000E656E000E646E829A65
:103630008294000EBD6E9D90A0901200CB68000E8B
:10364000CA6E0C0EBD6ECA8494941200000EC26E37
:0C365000C280890EC06E1200280C01061A
:020000040020DA
:08000000FFFFFFFFFFFFFFFF00
:020000040030CA
:0E000000FF071F1FFF8385FF0FC00FE00F409B
:00000001FF
